{
  "transactions": [
    {
      "hash": "0x72ee390f8a8b8f870661f3c2618ac48f3333fa3b9de70ca279084a0b1f204bfc",
      "transactionType": "CALL",
      "contractName": null,
      "contractAddress": "0x779877A7B0D9E8603169DdbD7836e478b4624789",
      "function": "transferAndCall(address,uint256,bytes)",
      "arguments": [
        "0x8103B0A8A00be2DDC778e6e7eaa21791Cd364625",
        "3000000000000000000",
        "0x00000000000000000000000000000000000000000000000000000000000024eb"
      ],
      "transaction": {
        "type": "0x02",
        "from": "0x1802819730a73593a5acdc92561e8ada2667629b",
        "to": "0x779877a7b0d9e8603169ddbd7836e478b4624789",
        "gas": "0x13fbe",
        "value": "0x0",
        "data": "0x4000aea00000000000000000000000008103b0a8a00be2ddc778e6e7eaa21791cd36462500000000000000000000000000000000000000000000000029a2241af62c00000000000000000000000000000000000000000000000000000000000000000060000000000000000000000000000000000000000000000000000000000000002000000000000000000000000000000000000000000000000000000000000024eb",
        "nonce": "0x6",
        "accessList": []
      },
      "additionalContracts": [],
      "isFixedGasLimit": false
    }
  ],
  "receipts": [
    {
      "transactionHash": "0x72ee390f8a8b8f870661f3c2618ac48f3333fa3b9de70ca279084a0b1f204bfc",
      "transactionIndex": "0x2f",
      "blockHash": "0xa929d8a37480c33ed3eb6451529103060abef40eb72397c7e86efc7fad67b8b6",
      "blockNumber": "0x51e599",
      "from": "0x1802819730a73593a5ACdc92561e8aDa2667629B",
      "to": "0x779877A7B0D9E8603169DdbD7836e478b4624789",
      "cumulativeGasUsed": "0x2fcf7b",
      "gasUsed": "0xe77e",
      "contractAddress": null,
      "logs": [
        {
          "address": "0x779877A7B0D9E8603169DdbD7836e478b4624789",
          "topics": [
            "0xddf252ad1be2c89b69c2b068fc378daa952ba7f163c4a11628f55a4df523b3ef",
            "0x0000000000000000000000001802819730a73593a5acdc92561e8ada2667629b",
            "0x0000000000000000000000008103b0a8a00be2ddc778e6e7eaa21791cd364625"
          ],
          "data": "0x00000000000000000000000000000000000000000000000029a2241af62c0000",
          "blockHash": "0xa929d8a37480c33ed3eb6451529103060abef40eb72397c7e86efc7fad67b8b6",
          "blockNumber": "0x51e599",
          "transactionHash": "0x72ee390f8a8b8f870661f3c2618ac48f3333fa3b9de70ca279084a0b1f204bfc",
          "transactionIndex": "0x2f",
          "logIndex": "0x2b",
          "removed": false
        },
        {
          "address": "0x779877A7B0D9E8603169DdbD7836e478b4624789",
          "topics": [
            "0xe19260aff97b920c7df27010903aeb9c8d2be5d310a2c67824cf3f15396e4c16",
            "0x0000000000000000000000001802819730a73593a5acdc92561e8ada2667629b",
            "0x0000000000000000000000008103b0a8a00be2ddc778e6e7eaa21791cd364625"
          ],
          "data": "0x00000000000000000000000000000000000000000000000029a2241af62c00000000000000000000000000000000000000000000000000000000000000000040000000000000000000000000000000000000000000000000000000000000002000000000000000000000000000000000000000000000000000000000000024eb",
          "blockHash": "0xa929d8a37480c33ed3eb6451529103060abef40eb72397c7e86efc7fad67b8b6",
          "blockNumber": "0x51e599",
          "transactionHash": "0x72ee390f8a8b8f870661f3c2618ac48f3333fa3b9de70ca279084a0b1f204bfc",
          "transactionIndex": "0x2f",
          "logIndex": "0x2c",
          "removed": false
        },
        {
          "address": "0x8103B0A8A00be2DDC778e6e7eaa21791Cd364625",
          "topics": [
            "0xd39ec07f4e209f627a4c427971473820dc129761ba28de8906bd56f57101d4f8",
            "0x00000000000000000000000000000000000000000000000000000000000024eb"
          ],
          "data": "0x0000000000000000000000000000000000000000000000002ea425a8094d8bd3000000000000000000000000000000000000000000000000584649c2ff798bd3",
          "blockHash": "0xa929d8a37480c33ed3eb6451529103060abef40eb72397c7e86efc7fad67b8b6",
          "blockNumber": "0x51e599",
          "transactionHash": "0x72ee390f8a8b8f870661f3c2618ac48f3333fa3b9de70ca279084a0b1f204bfc",
          "transactionIndex": "0x2f",
          "logIndex": "0x2d",
          "removed": false
        }
      ],
      "status": "0x1",
      "logsBloom": "0x0000001400000000000000000000000000000000000000020000000002000800000000000000800000000000000000000000000000000010000000000000000000000000000000000000000800000000000000000000000000002000000000400000000000000000000000000000000000000000400000000000001000000000000000000c000020000000000010800010000020000000000200000000000000000000000000000000000000000000000000000000000000000400000000000000000002000000000000000000000000000000000000000100000000000000000000000000000000000800000000000000000000000000000000000000000000",
      "type": "0x2",
      "effectiveGasPrice": "0x1357b73291"
    }
  ],
  "libraries": [],
  "pending": [],
  "returns": {},
  "timestamp": 1708952273,
  "chain": 11155111,
  "multi": false,
  "commit": "c4d1e81"
}